{
  "contractName": "AgriBlock",
  "abi": [
    {
      "inputs": [],
      "stateMutability": "nonpayable",
      "type": "constructor"
    },
    {
      "anonymous": false,
      "inputs": [
        {
          "indexed": true,
          "internalType": "address",
          "name": "_from",
          "type": "address"
        },
        {
          "indexed": true,
          "internalType": "address",
          "name": "_to",
          "type": "address"
        },
        {
          "components": [
            {
              "internalType": "string",
              "name": "product_name",
              "type": "string"
            },
            {
              "internalType": "uint256",
              "name": "product_quantity",
              "type": "uint256"
            },
            {
              "internalType": "uint256",
              "name": "price",
              "type": "uint256"
            },
            {
              "internalType": "string",
              "name": "_dateOfPlant",
              "type": "string"
            },
            {
              "internalType": "string",
              "name": "_harvestDate",
              "type": "string"
            }
          ],
          "indexed": false,
          "internalType": "struct ERC721.Products",
          "name": "product_Transferred",
          "type": "tuple"
        }
      ],
      "name": "Transfer",
      "type": "event"
    },
    {
      "inputs": [
        {
          "internalType": "address",
          "name": "_owner",
          "type": "address"
        }
      ],
      "name": "balanceOf",
      "outputs": [
        {
          "components": [
            {
              "internalType": "string",
              "name": "product_name",
              "type": "string"
            },
            {
              "internalType": "uint256",
              "name": "product_quantity",
              "type": "uint256"
            },
            {
              "internalType": "uint256",
              "name": "price",
              "type": "uint256"
            },
            {
              "internalType": "string",
              "name": "_dateOfPlant",
              "type": "string"
            },
            {
              "internalType": "string",
              "name": "_harvestDate",
              "type": "string"
            }
          ],
          "internalType": "struct ERC721.Products[]",
          "name": "",
          "type": "tuple[]"
        }
      ],
      "stateMutability": "view",
      "type": "function",
      "constant": true
    },
    {
      "inputs": [
        {
          "internalType": "address",
          "name": "",
          "type": "address"
        }
      ],
      "name": "isMember",
      "outputs": [
        {
          "internalType": "bool",
          "name": "",
          "type": "bool"
        }
      ],
      "stateMutability": "view",
      "type": "function",
      "constant": true
    },
    {
      "inputs": [
        {
          "internalType": "address",
          "name": "_owner",
          "type": "address"
        },
        {
          "internalType": "string",
          "name": "product_name",
          "type": "string"
        },
        {
          "internalType": "uint256",
          "name": "product_quantity",
          "type": "uint256"
        },
        {
          "internalType": "uint256",
          "name": "price",
          "type": "uint256"
        },
        {
          "internalType": "string",
          "name": "_dateOfPlant",
          "type": "string"
        },
        {
          "internalType": "string",
          "name": "_harvestDate",
          "type": "string"
        }
      ],
      "name": "mint",
      "outputs": [],
      "stateMutability": "nonpayable",
      "type": "function"
    },
    {
      "inputs": [
        {
          "internalType": "address",
          "name": "_from",
          "type": "address"
        },
        {
          "internalType": "address payable",
          "name": "_to",
          "type": "address"
        },
        {
          "internalType": "uint256",
          "name": "_index",
          "type": "uint256"
        },
        {
          "internalType": "string",
          "name": "product_name",
          "type": "string"
        },
        {
          "internalType": "uint256",
          "name": "product_quantity",
          "type": "uint256"
        },
        {
          "internalType": "uint256",
          "name": "price",
          "type": "uint256"
        },
        {
          "internalType": "string",
          "name": "_dateOfPlant",
          "type": "string"
        },
        {
          "internalType": "string",
          "name": "_harvestDate",
          "type": "string"
        }
      ],
      "name": "transferFrom",
      "outputs": [
        {
          "internalType": "uint256",
          "name": "",
          "type": "uint256"
        }
      ],
      "stateMutability": "payable",
      "type": "function",
      "payable": true
    }
  ],
  "bytecode": "0x608060405234801561001057600080fd5b5033600360006101000a81548173ffffffffffffffffffffffffffffffffffffffff021916908373ffffffffffffffffffffffffffffffffffffffff160217905550611978806100616000396000f3fe60806040526004361061003f5760003560e01c806370a08231146100445780639129b4ad14610081578063a230c524146100aa578063e428d5a4146100e7575b600080fd5b34801561005057600080fd5b5061006b60048036038101906100669190610f3a565b610117565b604051610078919061115f565b60405180910390f35b34801561008d57600080fd5b506100a860048036038101906100a39190611342565b6103bf565b005b3480156100b657600080fd5b506100d160048036038101906100cc9190610f3a565b610520565b6040516100de9190611448565b60405180910390f35b61010160048036038101906100fc91906114a1565b610540565b60405161010e91906115c3565b60405180910390f35b6060600073ffffffffffffffffffffffffffffffffffffffff168273ffffffffffffffffffffffffffffffffffffffff16141561015357600080fd5b6000600160008473ffffffffffffffffffffffffffffffffffffffff1673ffffffffffffffffffffffffffffffffffffffff168152602001908152602001600020805480602002602001604051908101604052809291908181526020016000905b828210156103b057838290600052602060002090600502016040518060a00160405290816000820180546101e79061160d565b80601f01602080910402602001604051908101604052809291908181526020018280546102139061160d565b80156102605780601f1061023557610100808354040283529160200191610260565b820191906000526020600020905b81548152906001019060200180831161024357829003601f168201915b50505050508152602001600182015481526020016002820154815260200160038201805461028d9061160d565b80601f01602080910402602001604051908101604052809291908181526020018280546102b99061160d565b80156103065780601f106102db57610100808354040283529160200191610306565b820191906000526020600020905b8154815290600101906020018083116102e957829003601f168201915b5050505050815260200160048201805461031f9061160d565b80601f016020809104026020016040519081016040528092919081815260200182805461034b9061160d565b80156103985780601f1061036d57610100808354040283529160200191610398565b820191906000526020600020905b81548152906001019060200180831161037b57829003601f168201915b505050505081525050815260200190600101906101b4565b50505050905080915050919050565b60006040518060a0016040528089815260200188815260200187815260200186868080601f016020809104026020016040519081016040528093929190818152602001838380828437600081840152601f19601f82011690508083019250505050505050815260200184848080601f016020809104026020016040519081016040528093929190818152602001838380828437600081840152601f19601f820116905080830192505050505050508152509050600081908060018154018082558091505060019003906000526020600020906005020160009091909190915060008201518160000190805190602001906104ba929190610d58565b50602082015181600101556040820151816002015560608201518160030190805190602001906104eb929190610d58565b506080820151816004019080519060200190610508929190610d58565b505050610515898261073e565b505050505050505050565b60026020528060005260406000206000915054906101000a900460ff1681565b6000858b73ffffffffffffffffffffffffffffffffffffffff16311161059b576040517f08c379a0000000000000000000000000000000000000000000000000000000008152600401610592906116c2565b60405180910390fd5b60006040518060a001604052808a815260200189815260200188815260200187878080601f016020809104026020016040519081016040528093929190818152602001838380828437600081840152601f19601f82011690508083019250505050505050815260200185858080601f016020809104026020016040519081016040528093929190818152602001838380828437600081840152601f19601f82011690508083019250505050505050815250905061065a8c8c8c84610870565b8a73ffffffffffffffffffffffffffffffffffffffff166108fc6012600a8a6106839190611711565b189081150290604051600060405180830381858888f193505050501580156106af573d6000803e3d6000fd5b508a73ffffffffffffffffffffffffffffffffffffffff168c73ffffffffffffffffffffffffffffffffffffffff167fb7a1b1d56ed6ecf468c7640b7ec9ef141bd74f7b2da79ed2ebe273494cb9b64c8360405161070d91906117ef565b60405180910390a38a73ffffffffffffffffffffffffffffffffffffffff16319150509a9950505050505050505050565b600160008373ffffffffffffffffffffffffffffffffffffffff1673ffffffffffffffffffffffffffffffffffffffff16815260200190815260200160002081908060018154018082558091505060019003906000526020600020906005020160009091909190915060008201518160000190805190602001906107c3929190610d58565b50602082015181600101556040820151816002015560608201518160030190805190602001906107f4929190610d58565b506080820151816004019080519060200190610811929190610d58565b5050506001600260008473ffffffffffffffffffffffffffffffffffffffff1673ffffffffffffffffffffffffffffffffffffffff16815260200190815260200160002060006101000a81548160ff0219169083151502179055505050565b600073ffffffffffffffffffffffffffffffffffffffff168473ffffffffffffffffffffffffffffffffffffffff1614156108aa57600080fd5b600073ffffffffffffffffffffffffffffffffffffffff168373ffffffffffffffffffffffffffffffffffffffff1614156108e457600080fd5b600115156108f1856109e3565b1515146108fd57600080fd5b6109078483610a3e565b600160008473ffffffffffffffffffffffffffffffffffffffff1673ffffffffffffffffffffffffffffffffffffffff168152602001908152602001600020819080600181540180825580915050600190039060005260206000209060050201600090919091909150600082015181600001908051906020019061098c929190610d58565b50602082015181600101556040820151816002015560608201518160030190805190602001906109bd929190610d58565b5060808201518160040190805190602001906109da929190610d58565b50505050505050565b600080600260008473ffffffffffffffffffffffffffffffffffffffff1673ffffffffffffffffffffffffffffffffffffffff16815260200190815260200160002060009054906101000a900460ff16905080915050919050565b6000600160008473ffffffffffffffffffffffffffffffffffffffff1673ffffffffffffffffffffffffffffffffffffffff168152602001908152602001600020905060008290505b60018280549050610a989190611811565b811015610b775781600182610aad9190611845565b81548110610abe57610abd61189b565b5b9060005260206000209060050201828281548110610adf57610ade61189b565b5b90600052602060002090600502016000820181600001908054610b019061160d565b610b0c929190610dde565b5060018201548160010155600282015481600201556003820181600301908054610b359061160d565b610b40929190610dde565b506004820181600401908054610b559061160d565b610b60929190610dde565b509050508080610b6f906118ca565b915050610a87565b5080805480610b8957610b88611913565b5b600190038181906000526020600020906005020160008082016000610bae9190610e6b565b60018201600090556002820160009055600382016000610bce9190610e6b565b600482016000610bde9190610e6b565b50509055610beb82610bf0565b505050565b60008190505b6001600080549050610c089190611811565b811015610ce9576000600182610c1e9190611845565b81548110610c2f57610c2e61189b565b5b906000526020600020906005020160008281548110610c5157610c5061189b565b5b90600052602060002090600502016000820181600001908054610c739061160d565b610c7e929190610dde565b5060018201548160010155600282015481600201556003820181600301908054610ca79061160d565b610cb2929190610dde565b506004820181600401908054610cc79061160d565b610cd2929190610dde565b509050508080610ce1906118ca565b915050610bf6565b506000805480610cfc57610cfb611913565b5b600190038181906000526020600020906005020160008082016000610d219190610e6b565b60018201600090556002820160009055600382016000610d419190610e6b565b600482016000610d519190610e6b565b5050905550565b828054610d649061160d565b90600052602060002090601f016020900481019282610d865760008555610dcd565b82601f10610d9f57805160ff1916838001178555610dcd565b82800160010185558215610dcd579182015b82811115610dcc578251825591602001919060010190610db1565b5b509050610dda9190610eab565b5090565b828054610dea9061160d565b90600052602060002090601f016020900481019282610e0c5760008555610e5a565b82601f10610e1d5780548555610e5a565b82800160010185558215610e5a57600052602060002091601f016020900482015b82811115610e59578254825591600101919060010190610e3e565b5b509050610e679190610eab565b5090565b508054610e779061160d565b6000825580601f10610e895750610ea8565b601f016020900490600052602060002090810190610ea79190610eab565b5b50565b5b80821115610ec4576000816000905550600101610eac565b5090565b6000604051905090565b600080fd5b600080fd5b600073ffffffffffffffffffffffffffffffffffffffff82169050919050565b6000610f0782610edc565b9050919050565b610f1781610efc565b8114610f2257600080fd5b50565b600081359050610f3481610f0e565b92915050565b600060208284031215610f5057610f4f610ed2565b5b6000610f5e84828501610f25565b91505092915050565b600081519050919050565b600082825260208201905092915050565b6000819050602082019050919050565b600081519050919050565b600082825260208201905092915050565b60005b83811015610fcd578082015181840152602081019050610fb2565b83811115610fdc576000848401525b50505050565b6000601f19601f8301169050919050565b6000610ffe82610f93565b6110088185610f9e565b9350611018818560208601610faf565b61102181610fe2565b840191505092915050565b6000819050919050565b61103f8161102c565b82525050565b600060a08301600083015184820360008601526110628282610ff3565b91505060208301516110776020860182611036565b50604083015161108a6040860182611036565b50606083015184820360608601526110a28282610ff3565b915050608083015184820360808601526110bc8282610ff3565b9150508091505092915050565b60006110d58383611045565b905092915050565b6000602082019050919050565b60006110f582610f67565b6110ff8185610f72565b93508360208202850161111185610f83565b8060005b8581101561114d578484038952815161112e85826110c9565b9450611139836110dd565b925060208a01995050600181019050611115565b50829750879550505050505092915050565b6000602082019050818103600083015261117981846110ea565b905092915050565b600080fd5b600080fd5b7f4e487b7100000000000000000000000000000000000000000000000000000000600052604160045260246000fd5b6111c382610fe2565b810181811067ffffffffffffffff821117156111e2576111e161118b565b5b80604052505050565b60006111f5610ec8565b905061120182826111ba565b919050565b600067ffffffffffffffff8211156112215761122061118b565b5b61122a82610fe2565b9050602081019050919050565b82818337600083830152505050565b600061125961125484611206565b6111eb565b90508281526020810184848401111561127557611274611186565b5b611280848285611237565b509392505050565b600082601f83011261129d5761129c611181565b5b81356112ad848260208601611246565b91505092915050565b6112bf8161102c565b81146112ca57600080fd5b50565b6000813590506112dc816112b6565b92915050565b600080fd5b600080fd5b60008083601f84011261130257611301611181565b5b8235905067ffffffffffffffff81111561131f5761131e6112e2565b5b60208301915083600182028301111561133b5761133a6112e7565b5b9250929050565b60008060008060008060008060c0898b03121561136257611361610ed2565b5b60006113708b828c01610f25565b985050602089013567ffffffffffffffff81111561139157611390610ed7565b5b61139d8b828c01611288565b97505060406113ae8b828c016112cd565b96505060606113bf8b828c016112cd565b955050608089013567ffffffffffffffff8111156113e0576113df610ed7565b5b6113ec8b828c016112ec565b945094505060a089013567ffffffffffffffff81111561140f5761140e610ed7565b5b61141b8b828c016112ec565b92509250509295985092959890939650565b60008115159050919050565b6114428161142d565b82525050565b600060208201905061145d6000830184611439565b92915050565b600061146e82610edc565b9050919050565b61147e81611463565b811461148957600080fd5b50565b60008135905061149b81611475565b92915050565b6000806000806000806000806000806101008b8d0312156114c5576114c4610ed2565b5b60006114d38d828e01610f25565b9a505060206114e48d828e0161148c565b99505060406114f58d828e016112cd565b98505060608b013567ffffffffffffffff81111561151657611515610ed7565b5b6115228d828e01611288565b97505060806115338d828e016112cd565b96505060a06115448d828e016112cd565b95505060c08b013567ffffffffffffffff81111561156557611564610ed7565b5b6115718d828e016112ec565b945094505060e08b013567ffffffffffffffff81111561159457611593610ed7565b5b6115a08d828e016112ec565b92509250509295989b9194979a5092959850565b6115bd8161102c565b82525050565b60006020820190506115d860008301846115b4565b92915050565b7f4e487b7100000000000000000000000000000000000000000000000000000000600052602260045260246000fd5b6000600282049050600182168061162557607f821691505b60208210811415611639576116386115de565b5b50919050565b600082825260208201905092915050565b7f596f75206861766520696e73756666696369656e742062616c616e636520746f60008201527f207472616e736163740000000000000000000000000000000000000000000000602082015250565b60006116ac60298361163f565b91506116b782611650565b604082019050919050565b600060208201905081810360008301526116db8161169f565b9050919050565b7f4e487b7100000000000000000000000000000000000000000000000000000000600052601160045260246000fd5b600061171c8261102c565b91506117278361102c565b9250817fffffffffffffffffffffffffffffffffffffffffffffffffffffffffffffffff04831182151516156117605761175f6116e2565b5b828202905092915050565b600060a08301600083015184820360008601526117888282610ff3565b915050602083015161179d6020860182611036565b5060408301516117b06040860182611036565b50606083015184820360608601526117c88282610ff3565b915050608083015184820360808601526117e28282610ff3565b9150508091505092915050565b60006020820190508181036000830152611809818461176b565b905092915050565b600061181c8261102c565b91506118278361102c565b92508282101561183a576118396116e2565b5b828203905092915050565b60006118508261102c565b915061185b8361102c565b9250827fffffffffffffffffffffffffffffffffffffffffffffffffffffffffffffffff038211156118905761188f6116e2565b5b828201905092915050565b7f4e487b7100000000000000000000000000000000000000000000000000000000600052603260045260246000fd5b60006118d58261102c565b91507fffffffffffffffffffffffffffffffffffffffffffffffffffffffffffffffff821415611908576119076116e2565b5b600182019050919050565b7f4e487b7100000000000000000000000000000000000000000000000000000000600052603160045260246000fdfea2646970667358221220c1a5336b8df57bcac29ff49fc1fcbe46282f4743d9e9b9ae2fbf95b5161a4c3364736f6c634300080b0033",
  "immutableReferences": {},
  "source": "//SPDX-License-Identifier: MIT\npragma solidity ^0.8.0;\n\nimport './ERC721.sol';\n\ncontract AgriBlock is ERC721{\n    \n    address private contract_owner;\n    constructor(){\n        contract_owner = msg.sender;\n    }\n}",
  "sourcePath": "/home/ollie/Documents/vscodeprojects/decentralized_marketplace/src/contracts/AgriBlock.sol",
  "compiler": {
    "name": "solc",
    "version": "0.8.11+commit.d7f03943.Emscripten.clang"
  },
  "schemaVersion": "3.4.4",
  "updatedAt": "2022-02-11T08:49:30.628Z",
  "networkType": "ethereum",
  "devdoc": {
    "kind": "dev",
    "methods": {},
    "version": 1
  },
  "userdoc": {
    "kind": "user",
    "methods": {},
    "version": 1
  }
}