{
  "contractName": "ERC721Enumerable",
  "abi": [
    {
      "anonymous": false,
      "inputs": [
        {
          "indexed": true,
          "internalType": "address",
          "name": "_from",
          "type": "address"
        },
        {
          "indexed": true,
          "internalType": "address",
          "name": "_to",
          "type": "address"
        },
        {
          "components": [
            {
              "internalType": "string",
              "name": "product_name",
              "type": "string"
            },
            {
              "internalType": "uint256",
              "name": "product_quantity",
              "type": "uint256"
            },
            {
              "internalType": "uint256",
              "name": "price",
              "type": "uint256"
            },
            {
              "internalType": "string",
              "name": "_dateOfPlant",
              "type": "string"
            },
            {
              "internalType": "string",
              "name": "_harvestDate",
              "type": "string"
            }
          ],
          "indexed": false,
          "internalType": "struct ERC721.Products",
          "name": "product_Transferred",
          "type": "tuple"
        }
      ],
      "name": "Transfer",
      "type": "event"
    },
    {
      "inputs": [
        {
          "internalType": "address",
          "name": "_owner",
          "type": "address"
        }
      ],
      "name": "balanceOf",
      "outputs": [
        {
          "components": [
            {
              "internalType": "string",
              "name": "product_name",
              "type": "string"
            },
            {
              "internalType": "uint256",
              "name": "product_quantity",
              "type": "uint256"
            },
            {
              "internalType": "uint256",
              "name": "price",
              "type": "uint256"
            },
            {
              "internalType": "string",
              "name": "_dateOfPlant",
              "type": "string"
            },
            {
              "internalType": "string",
              "name": "_harvestDate",
              "type": "string"
            }
          ],
          "internalType": "struct ERC721.Products[]",
          "name": "",
          "type": "tuple[]"
        }
      ],
      "stateMutability": "view",
      "type": "function"
    },
    {
      "inputs": [
        {
          "internalType": "address",
          "name": "",
          "type": "address"
        }
      ],
      "name": "isMember",
      "outputs": [
        {
          "internalType": "bool",
          "name": "",
          "type": "bool"
        }
      ],
      "stateMutability": "view",
      "type": "function"
    },
    {
      "inputs": [
        {
          "internalType": "address",
          "name": "_owner",
          "type": "address"
        },
        {
          "internalType": "string",
          "name": "product_name",
          "type": "string"
        },
        {
          "internalType": "uint256",
          "name": "product_quantity",
          "type": "uint256"
        },
        {
          "internalType": "uint256",
          "name": "price",
          "type": "uint256"
        },
        {
          "internalType": "string",
          "name": "_dateOfPlant",
          "type": "string"
        },
        {
          "internalType": "string",
          "name": "_harvestDate",
          "type": "string"
        }
      ],
      "name": "mint",
      "outputs": [],
      "stateMutability": "nonpayable",
      "type": "function"
    },
    {
      "inputs": [
        {
          "internalType": "address",
          "name": "_from",
          "type": "address"
        },
        {
          "internalType": "address payable",
          "name": "_to",
          "type": "address"
        },
        {
          "internalType": "uint256",
          "name": "_index",
          "type": "uint256"
        },
        {
          "internalType": "string",
          "name": "product_name",
          "type": "string"
        },
        {
          "internalType": "uint256",
          "name": "product_quantity",
          "type": "uint256"
        },
        {
          "internalType": "uint256",
          "name": "price",
          "type": "uint256"
        },
        {
          "internalType": "string",
          "name": "_dateOfPlant",
          "type": "string"
        },
        {
          "internalType": "string",
          "name": "_harvestDate",
          "type": "string"
        }
      ],
      "name": "transferFrom",
      "outputs": [
        {
          "internalType": "uint256",
          "name": "",
          "type": "uint256"
        }
      ],
      "stateMutability": "payable",
      "type": "function"
    },
    {
      "inputs": [],
      "name": "totalSupply",
      "outputs": [
        {
          "internalType": "uint256",
          "name": "",
          "type": "uint256"
        }
      ],
      "stateMutability": "view",
      "type": "function"
    },
    {
      "inputs": [
        {
          "internalType": "address",
          "name": "_owner",
          "type": "address"
        },
        {
          "internalType": "uint256",
          "name": "_index",
          "type": "uint256"
        }
      ],
      "name": "tokenOfOwnerByIndex",
      "outputs": [
        {
          "components": [
            {
              "internalType": "string",
              "name": "product_name",
              "type": "string"
            },
            {
              "internalType": "uint256",
              "name": "product_quantity",
              "type": "uint256"
            },
            {
              "internalType": "uint256",
              "name": "price",
              "type": "uint256"
            },
            {
              "internalType": "string",
              "name": "_dateOfPlant",
              "type": "string"
            },
            {
              "internalType": "string",
              "name": "_harvestDate",
              "type": "string"
            }
          ],
          "internalType": "struct ERC721.Products",
          "name": "",
          "type": "tuple"
        }
      ],
      "stateMutability": "view",
      "type": "function"
    },
    {
      "inputs": [
        {
          "internalType": "uint256",
          "name": "_index",
          "type": "uint256"
        }
      ],
      "name": "tokenByIndex",
      "outputs": [
        {
          "components": [
            {
              "internalType": "string",
              "name": "product_name",
              "type": "string"
            },
            {
              "internalType": "uint256",
              "name": "product_quantity",
              "type": "uint256"
            },
            {
              "internalType": "uint256",
              "name": "price",
              "type": "uint256"
            },
            {
              "internalType": "string",
              "name": "_dateOfPlant",
              "type": "string"
            },
            {
              "internalType": "string",
              "name": "_harvestDate",
              "type": "string"
            }
          ],
          "internalType": "struct ERC721.Products",
          "name": "",
          "type": "tuple"
        }
      ],
      "stateMutability": "view",
      "type": "function"
    }
  ],
  "bytecode": "0x608060405234801561001057600080fd5b50611f90806100206000396000f3fe6080604052600436106100705760003560e01c806370a082311161004e57806370a082311461011a5780639129b4ad14610157578063a230c52414610180578063e428d5a4146101bd57610070565b806318160ddd146100755780632f745c59146100a05780634f6ccce7146100dd575b600080fd5b34801561008157600080fd5b5061008a6101ed565b604051610097919061148c565b60405180910390f35b3480156100ac57600080fd5b506100c760048036038101906100c29190611545565b6101f9565b6040516100d491906116b1565b60405180910390f35b3480156100e957600080fd5b5061010460048036038101906100ff91906116d3565b610488565b60405161011191906116b1565b60405180910390f35b34801561012657600080fd5b50610141600480360381019061013c9190611700565b610693565b60405161014e9190611873565b60405180910390f35b34801561016357600080fd5b5061017e60048036038101906101799190611a2a565b61093b565b005b34801561018c57600080fd5b506101a760048036038101906101a29190611700565b610a9c565b6040516101b49190611b30565b60405180910390f35b6101d760048036038101906101d29190611b89565b610abc565b6040516101e4919061148c565b60405180910390f35b60008080549050905090565b6102016112d4565b6000600160008573ffffffffffffffffffffffffffffffffffffffff1673ffffffffffffffffffffffffffffffffffffffff168152602001908152602001600020805480602002602001604051908101604052809291908181526020016000905b8282101561045e57838290600052602060002090600502016040518060a001604052908160008201805461029590611ccb565b80601f01602080910402602001604051908101604052809291908181526020018280546102c190611ccb565b801561030e5780601f106102e35761010080835404028352916020019161030e565b820191906000526020600020905b8154815290600101906020018083116102f157829003601f168201915b50505050508152602001600182015481526020016002820154815260200160038201805461033b90611ccb565b80601f016020809104026020016040519081016040528092919081815260200182805461036790611ccb565b80156103b45780601f10610389576101008083540402835291602001916103b4565b820191906000526020600020905b81548152906001019060200180831161039757829003601f168201915b505050505081526020016004820180546103cd90611ccb565b80601f01602080910402602001604051908101604052809291908181526020018280546103f990611ccb565b80156104465780601f1061041b57610100808354040283529160200191610446565b820191906000526020600020905b81548152906001019060200180831161042957829003601f168201915b50505050508152505081526020019060010190610262565b50505050905080838151811061047757610476611cfd565b5b602002602001015191505092915050565b6104906112d4565b60008083815481106104a5576104a4611cfd565b5b90600052602060002090600502016040518060a00160405290816000820180546104ce90611ccb565b80601f01602080910402602001604051908101604052809291908181526020018280546104fa90611ccb565b80156105475780601f1061051c57610100808354040283529160200191610547565b820191906000526020600020905b81548152906001019060200180831161052a57829003601f168201915b50505050508152602001600182015481526020016002820154815260200160038201805461057490611ccb565b80601f01602080910402602001604051908101604052809291908181526020018280546105a090611ccb565b80156105ed5780601f106105c2576101008083540402835291602001916105ed565b820191906000526020600020905b8154815290600101906020018083116105d057829003601f168201915b5050505050815260200160048201805461060690611ccb565b80601f016020809104026020016040519081016040528092919081815260200182805461063290611ccb565b801561067f5780601f106106545761010080835404028352916020019161067f565b820191906000526020600020905b81548152906001019060200180831161066257829003601f168201915b505050505081525050905080915050919050565b6060600073ffffffffffffffffffffffffffffffffffffffff168273ffffffffffffffffffffffffffffffffffffffff1614156106cf57600080fd5b6000600160008473ffffffffffffffffffffffffffffffffffffffff1673ffffffffffffffffffffffffffffffffffffffff168152602001908152602001600020805480602002602001604051908101604052809291908181526020016000905b8282101561092c57838290600052602060002090600502016040518060a001604052908160008201805461076390611ccb565b80601f016020809104026020016040519081016040528092919081815260200182805461078f90611ccb565b80156107dc5780601f106107b1576101008083540402835291602001916107dc565b820191906000526020600020905b8154815290600101906020018083116107bf57829003601f168201915b50505050508152602001600182015481526020016002820154815260200160038201805461080990611ccb565b80601f016020809104026020016040519081016040528092919081815260200182805461083590611ccb565b80156108825780601f1061085757610100808354040283529160200191610882565b820191906000526020600020905b81548152906001019060200180831161086557829003601f168201915b5050505050815260200160048201805461089b90611ccb565b80601f01602080910402602001604051908101604052809291908181526020018280546108c790611ccb565b80156109145780601f106108e957610100808354040283529160200191610914565b820191906000526020600020905b8154815290600101906020018083116108f757829003601f168201915b50505050508152505081526020019060010190610730565b50505050905080915050919050565b60006040518060a0016040528089815260200188815260200187815260200186868080601f016020809104026020016040519081016040528093929190818152602001838380828437600081840152601f19601f82011690508083019250505050505050815260200184848080601f016020809104026020016040519081016040528093929190818152602001838380828437600081840152601f19601f82011690508083019250505050505050815250905060008190806001815401808255809150506001900390600052602060002090600502016000909190919091506000820151816000019080519060200190610a36929190611303565b5060208201518160010155604082015181600201556060820151816003019080519060200190610a67929190611303565b506080820151816004019080519060200190610a84929190611303565b505050610a918982610cba565b505050505050505050565b60026020528060005260406000206000915054906101000a900460ff1681565b6000858b73ffffffffffffffffffffffffffffffffffffffff163111610b17576040517f08c379a0000000000000000000000000000000000000000000000000000000008152600401610b0e90611daf565b60405180910390fd5b60006040518060a001604052808a815260200189815260200188815260200187878080601f016020809104026020016040519081016040528093929190818152602001838380828437600081840152601f19601f82011690508083019250505050505050815260200185858080601f016020809104026020016040519081016040528093929190818152602001838380828437600081840152601f19601f820116905080830192505050505050508152509050610bd68c8c8c84610dec565b8a73ffffffffffffffffffffffffffffffffffffffff166108fc6012600a8a610bff9190611dfe565b189081150290604051600060405180830381858888f19350505050158015610c2b573d6000803e3d6000fd5b508a73ffffffffffffffffffffffffffffffffffffffff168c73ffffffffffffffffffffffffffffffffffffffff167fb7a1b1d56ed6ecf468c7640b7ec9ef141bd74f7b2da79ed2ebe273494cb9b64c83604051610c8991906116b1565b60405180910390a38a73ffffffffffffffffffffffffffffffffffffffff16319150509a9950505050505050505050565b600160008373ffffffffffffffffffffffffffffffffffffffff1673ffffffffffffffffffffffffffffffffffffffff1681526020019081526020016000208190806001815401808255809150506001900390600052602060002090600502016000909190919091506000820151816000019080519060200190610d3f929190611303565b5060208201518160010155604082015181600201556060820151816003019080519060200190610d70929190611303565b506080820151816004019080519060200190610d8d929190611303565b5050506001600260008473ffffffffffffffffffffffffffffffffffffffff1673ffffffffffffffffffffffffffffffffffffffff16815260200190815260200160002060006101000a81548160ff0219169083151502179055505050565b600073ffffffffffffffffffffffffffffffffffffffff168473ffffffffffffffffffffffffffffffffffffffff161415610e2657600080fd5b600073ffffffffffffffffffffffffffffffffffffffff168373ffffffffffffffffffffffffffffffffffffffff161415610e6057600080fd5b60011515610e6d85610f5f565b151514610e7957600080fd5b610e838483610fba565b600160008473ffffffffffffffffffffffffffffffffffffffff1673ffffffffffffffffffffffffffffffffffffffff1681526020019081526020016000208190806001815401808255809150506001900390600052602060002090600502016000909190919091506000820151816000019080519060200190610f08929190611303565b5060208201518160010155604082015181600201556060820151816003019080519060200190610f39929190611303565b506080820151816004019080519060200190610f56929190611303565b50505050505050565b600080600260008473ffffffffffffffffffffffffffffffffffffffff1673ffffffffffffffffffffffffffffffffffffffff16815260200190815260200160002060009054906101000a900460ff16905080915050919050565b6000600160008473ffffffffffffffffffffffffffffffffffffffff1673ffffffffffffffffffffffffffffffffffffffff168152602001908152602001600020905060008290505b600182805490506110149190611e58565b8110156110f357816001826110299190611e8c565b8154811061103a57611039611cfd565b5b906000526020600020906005020182828154811061105b5761105a611cfd565b5b9060005260206000209060050201600082018160000190805461107d90611ccb565b611088929190611389565b50600182015481600101556002820154816002015560038201816003019080546110b190611ccb565b6110bc929190611389565b5060048201816004019080546110d190611ccb565b6110dc929190611389565b5090505080806110eb90611ee2565b915050611003565b508080548061110557611104611f2b565b5b60019003818190600052602060002090600502016000808201600061112a9190611416565b6001820160009055600282016000905560038201600061114a9190611416565b60048201600061115a9190611416565b505090556111678261116c565b505050565b60008190505b60016000805490506111849190611e58565b81101561126557600060018261119a9190611e8c565b815481106111ab576111aa611cfd565b5b9060005260206000209060050201600082815481106111cd576111cc611cfd565b5b906000526020600020906005020160008201816000019080546111ef90611ccb565b6111fa929190611389565b506001820154816001015560028201548160020155600382018160030190805461122390611ccb565b61122e929190611389565b50600482018160040190805461124390611ccb565b61124e929190611389565b50905050808061125d90611ee2565b915050611172565b50600080548061127857611277611f2b565b5b60019003818190600052602060002090600502016000808201600061129d9190611416565b600182016000905560028201600090556003820160006112bd9190611416565b6004820160006112cd9190611416565b5050905550565b6040518060a0016040528060608152602001600081526020016000815260200160608152602001606081525090565b82805461130f90611ccb565b90600052602060002090601f0160209004810192826113315760008555611378565b82601f1061134a57805160ff1916838001178555611378565b82800160010185558215611378579182015b8281111561137757825182559160200191906001019061135c565b5b5090506113859190611456565b5090565b82805461139590611ccb565b90600052602060002090601f0160209004810192826113b75760008555611405565b82601f106113c85780548555611405565b8280016001018555821561140557600052602060002091601f016020900482015b828111156114045782548255916001019190600101906113e9565b5b5090506114129190611456565b5090565b50805461142290611ccb565b6000825580601f106114345750611453565b601f0160209004906000526020600020908101906114529190611456565b5b50565b5b8082111561146f576000816000905550600101611457565b5090565b6000819050919050565b61148681611473565b82525050565b60006020820190506114a1600083018461147d565b92915050565b6000604051905090565b600080fd5b600080fd5b600073ffffffffffffffffffffffffffffffffffffffff82169050919050565b60006114e6826114bb565b9050919050565b6114f6816114db565b811461150157600080fd5b50565b600081359050611513816114ed565b92915050565b61152281611473565b811461152d57600080fd5b50565b60008135905061153f81611519565b92915050565b6000806040838503121561155c5761155b6114b1565b5b600061156a85828601611504565b925050602061157b85828601611530565b9150509250929050565b600081519050919050565b600082825260208201905092915050565b60005b838110156115bf5780820151818401526020810190506115a4565b838111156115ce576000848401525b50505050565b6000601f19601f8301169050919050565b60006115f082611585565b6115fa8185611590565b935061160a8185602086016115a1565b611613816115d4565b840191505092915050565b61162781611473565b82525050565b600060a083016000830151848203600086015261164a82826115e5565b915050602083015161165f602086018261161e565b506040830151611672604086018261161e565b506060830151848203606086015261168a82826115e5565b915050608083015184820360808601526116a482826115e5565b9150508091505092915050565b600060208201905081810360008301526116cb818461162d565b905092915050565b6000602082840312156116e9576116e86114b1565b5b60006116f784828501611530565b91505092915050565b600060208284031215611716576117156114b1565b5b600061172484828501611504565b91505092915050565b600081519050919050565b600082825260208201905092915050565b6000819050602082019050919050565b600060a083016000830151848203600086015261177682826115e5565b915050602083015161178b602086018261161e565b50604083015161179e604086018261161e565b50606083015184820360608601526117b682826115e5565b915050608083015184820360808601526117d082826115e5565b9150508091505092915050565b60006117e98383611759565b905092915050565b6000602082019050919050565b60006118098261172d565b6118138185611738565b93508360208202850161182585611749565b8060005b85811015611861578484038952815161184285826117dd565b945061184d836117f1565b925060208a01995050600181019050611829565b50829750879550505050505092915050565b6000602082019050818103600083015261188d81846117fe565b905092915050565b600080fd5b600080fd5b7f4e487b7100000000000000000000000000000000000000000000000000000000600052604160045260246000fd5b6118d7826115d4565b810181811067ffffffffffffffff821117156118f6576118f561189f565b5b80604052505050565b60006119096114a7565b905061191582826118ce565b919050565b600067ffffffffffffffff8211156119355761193461189f565b5b61193e826115d4565b9050602081019050919050565b82818337600083830152505050565b600061196d6119688461191a565b6118ff565b9050828152602081018484840111156119895761198861189a565b5b61199484828561194b565b509392505050565b600082601f8301126119b1576119b0611895565b5b81356119c184826020860161195a565b91505092915050565b600080fd5b600080fd5b60008083601f8401126119ea576119e9611895565b5b8235905067ffffffffffffffff811115611a0757611a066119ca565b5b602083019150836001820283011115611a2357611a226119cf565b5b9250929050565b60008060008060008060008060c0898b031215611a4a57611a496114b1565b5b6000611a588b828c01611504565b985050602089013567ffffffffffffffff811115611a7957611a786114b6565b5b611a858b828c0161199c565b9750506040611a968b828c01611530565b9650506060611aa78b828c01611530565b955050608089013567ffffffffffffffff811115611ac857611ac76114b6565b5b611ad48b828c016119d4565b945094505060a089013567ffffffffffffffff811115611af757611af66114b6565b5b611b038b828c016119d4565b92509250509295985092959890939650565b60008115159050919050565b611b2a81611b15565b82525050565b6000602082019050611b456000830184611b21565b92915050565b6000611b56826114bb565b9050919050565b611b6681611b4b565b8114611b7157600080fd5b50565b600081359050611b8381611b5d565b92915050565b6000806000806000806000806000806101008b8d031215611bad57611bac6114b1565b5b6000611bbb8d828e01611504565b9a50506020611bcc8d828e01611b74565b9950506040611bdd8d828e01611530565b98505060608b013567ffffffffffffffff811115611bfe57611bfd6114b6565b5b611c0a8d828e0161199c565b9750506080611c1b8d828e01611530565b96505060a0611c2c8d828e01611530565b95505060c08b013567ffffffffffffffff811115611c4d57611c4c6114b6565b5b611c598d828e016119d4565b945094505060e08b013567ffffffffffffffff811115611c7c57611c7b6114b6565b5b611c888d828e016119d4565b92509250509295989b9194979a5092959850565b7f4e487b7100000000000000000000000000000000000000000000000000000000600052602260045260246000fd5b60006002820490506001821680611ce357607f821691505b60208210811415611cf757611cf6611c9c565b5b50919050565b7f4e487b7100000000000000000000000000000000000000000000000000000000600052603260045260246000fd5b600082825260208201905092915050565b7f596f75206861766520696e73756666696369656e742062616c616e636520746f60008201527f207472616e736163740000000000000000000000000000000000000000000000602082015250565b6000611d99602983611d2c565b9150611da482611d3d565b604082019050919050565b60006020820190508181036000830152611dc881611d8c565b9050919050565b7f4e487b7100000000000000000000000000000000000000000000000000000000600052601160045260246000fd5b6000611e0982611473565b9150611e1483611473565b9250817fffffffffffffffffffffffffffffffffffffffffffffffffffffffffffffffff0483118215151615611e4d57611e4c611dcf565b5b828202905092915050565b6000611e6382611473565b9150611e6e83611473565b925082821015611e8157611e80611dcf565b5b828203905092915050565b6000611e9782611473565b9150611ea283611473565b9250827fffffffffffffffffffffffffffffffffffffffffffffffffffffffffffffffff03821115611ed757611ed6611dcf565b5b828201905092915050565b6000611eed82611473565b91507fffffffffffffffffffffffffffffffffffffffffffffffffffffffffffffffff821415611f2057611f1f611dcf565b5b600182019050919050565b7f4e487b7100000000000000000000000000000000000000000000000000000000600052603160045260246000fdfea2646970667358221220ef399ad78f006322db65d70769ba56e748b13dae71a796a694fc3ad4f81f907c64736f6c634300080b0033",
  "immutableReferences": {},
  "source": "// SPDX-License-Identifier: MIT\npragma solidity >=0.4.22 <0.9.0;\n\nimport './ERC721.sol';\n\ncontract ERC721Enumerable is ERC721{\n\n    //returns all commodity in a list\n    function totalSupply() public view returns(uint256){\n        return product.length;\n    }\n    //returns all comodity by a farmer and their index\n    function tokenOfOwnerByIndex(address _owner, uint256 _index) public view returns(Products memory){\n        Products[] memory product = ownerProducts[_owner];\n        return product[_index];\n    }\n    function tokenByIndex(uint256 _index) public view returns(Products memory){\n        Products memory product = product[_index];\n        return product;\n    }\n}",
  "sourcePath": "/home/ollie/Documents/vscodeprojects/decentralized_marketplace/src/contracts/ERC721Enumerable.sol",
  "compiler": {
    "name": "solc",
    "version": "0.8.11+commit.d7f03943.Emscripten.clang"
  },
  "schemaVersion": "3.4.4",
  "updatedAt": "2022-02-11T08:48:44.237Z",
  "devdoc": {
    "kind": "dev",
    "methods": {},
    "version": 1
  },
  "userdoc": {
    "kind": "user",
    "methods": {},
    "version": 1
  }
}