{
  "contractName": "Users",
  "abi": [
    {
      "inputs": [],
      "stateMutability": "nonpayable",
      "type": "constructor"
    },
    {
      "inputs": [
        {
          "internalType": "uint256",
          "name": "",
          "type": "uint256"
        }
      ],
      "name": "_age",
      "outputs": [
        {
          "internalType": "uint256",
          "name": "",
          "type": "uint256"
        }
      ],
      "stateMutability": "view",
      "type": "function"
    },
    {
      "inputs": [
        {
          "internalType": "uint256",
          "name": "",
          "type": "uint256"
        }
      ],
      "name": "_color",
      "outputs": [
        {
          "internalType": "string",
          "name": "",
          "type": "string"
        }
      ],
      "stateMutability": "view",
      "type": "function"
    },
    {
      "inputs": [
        {
          "internalType": "uint256",
          "name": "",
          "type": "uint256"
        }
      ],
      "name": "_name",
      "outputs": [
        {
          "internalType": "string",
          "name": "",
          "type": "string"
        }
      ],
      "stateMutability": "view",
      "type": "function"
    },
    {
      "inputs": [
        {
          "internalType": "uint256",
          "name": "",
          "type": "uint256"
        }
      ],
      "name": "array1",
      "outputs": [
        {
          "internalType": "uint256",
          "name": "",
          "type": "uint256"
        }
      ],
      "stateMutability": "view",
      "type": "function"
    },
    {
      "inputs": [
        {
          "internalType": "address",
          "name": "",
          "type": "address"
        }
      ],
      "name": "there",
      "outputs": [
        {
          "internalType": "bool",
          "name": "",
          "type": "bool"
        }
      ],
      "stateMutability": "view",
      "type": "function"
    },
    {
      "inputs": [
        {
          "internalType": "address",
          "name": "",
          "type": "address"
        },
        {
          "internalType": "uint256",
          "name": "",
          "type": "uint256"
        }
      ],
      "name": "usersmap",
      "outputs": [
        {
          "internalType": "string",
          "name": "name",
          "type": "string"
        },
        {
          "internalType": "uint256",
          "name": "age",
          "type": "uint256"
        },
        {
          "internalType": "string",
          "name": "color",
          "type": "string"
        }
      ],
      "stateMutability": "view",
      "type": "function"
    },
    {
      "inputs": [
        {
          "internalType": "string",
          "name": "name",
          "type": "string"
        },
        {
          "internalType": "uint256",
          "name": "age",
          "type": "uint256"
        },
        {
          "internalType": "string",
          "name": "color",
          "type": "string"
        }
      ],
      "name": "setMember",
      "outputs": [],
      "stateMutability": "nonpayable",
      "type": "function"
    },
    {
      "inputs": [
        {
          "internalType": "address",
          "name": "_to",
          "type": "address"
        },
        {
          "components": [
            {
              "internalType": "string",
              "name": "name",
              "type": "string"
            },
            {
              "internalType": "uint256",
              "name": "age",
              "type": "uint256"
            },
            {
              "internalType": "string",
              "name": "color",
              "type": "string"
            }
          ],
          "internalType": "struct Users.NewUser",
          "name": "u",
          "type": "tuple"
        }
      ],
      "name": "mint",
      "outputs": [],
      "stateMutability": "nonpayable",
      "type": "function"
    },
    {
      "inputs": [
        {
          "internalType": "address",
          "name": "_from",
          "type": "address"
        },
        {
          "internalType": "address",
          "name": "_to",
          "type": "address"
        },
        {
          "components": [
            {
              "internalType": "string",
              "name": "name",
              "type": "string"
            },
            {
              "internalType": "uint256",
              "name": "age",
              "type": "uint256"
            },
            {
              "internalType": "string",
              "name": "color",
              "type": "string"
            }
          ],
          "internalType": "struct Users.NewUser",
          "name": "u",
          "type": "tuple"
        }
      ],
      "name": "transferFrom",
      "outputs": [],
      "stateMutability": "nonpayable",
      "type": "function"
    },
    {
      "inputs": [
        {
          "internalType": "address",
          "name": "_owner",
          "type": "address"
        }
      ],
      "name": "exists",
      "outputs": [
        {
          "internalType": "bool",
          "name": "",
          "type": "bool"
        }
      ],
      "stateMutability": "view",
      "type": "function"
    },
    {
      "inputs": [],
      "name": "getmembers",
      "outputs": [
        {
          "internalType": "uint256[]",
          "name": "",
          "type": "uint256[]"
        },
        {
          "internalType": "string[]",
          "name": "",
          "type": "string[]"
        },
        {
          "internalType": "string[]",
          "name": "",
          "type": "string[]"
        }
      ],
      "stateMutability": "nonpayable",
      "type": "function"
    },
    {
      "inputs": [],
      "name": "newUserLength",
      "outputs": [
        {
          "internalType": "uint256",
          "name": "",
          "type": "uint256"
        }
      ],
      "stateMutability": "view",
      "type": "function"
    },
    {
      "inputs": [],
      "name": "arraylength",
      "outputs": [
        {
          "internalType": "uint256[]",
          "name": "",
          "type": "uint256[]"
        }
      ],
      "stateMutability": "view",
      "type": "function"
    },
    {
      "inputs": [
        {
          "internalType": "uint256",
          "name": "index",
          "type": "uint256"
        }
      ],
      "name": "getmembersByIndex",
      "outputs": [
        {
          "components": [
            {
              "internalType": "string",
              "name": "name",
              "type": "string"
            },
            {
              "internalType": "uint256",
              "name": "age",
              "type": "uint256"
            },
            {
              "internalType": "string",
              "name": "color",
              "type": "string"
            }
          ],
          "internalType": "struct Users.NewUser",
          "name": "",
          "type": "tuple"
        }
      ],
      "stateMutability": "view",
      "type": "function"
    },
    {
      "inputs": [
        {
          "internalType": "address",
          "name": "_owner",
          "type": "address"
        }
      ],
      "name": "balanceOf",
      "outputs": [
        {
          "components": [
            {
              "internalType": "string",
              "name": "name",
              "type": "string"
            },
            {
              "internalType": "uint256",
              "name": "age",
              "type": "uint256"
            },
            {
              "internalType": "string",
              "name": "color",
              "type": "string"
            }
          ],
          "internalType": "struct Users.NewUser[]",
          "name": "",
          "type": "tuple[]"
        }
      ],
      "stateMutability": "view",
      "type": "function"
    }
  ],
  "bytecode": "0x608060405234801561001057600080fd5b506000600481905550612212806100286000396000f3fe608060405234801561001057600080fd5b50600436106100f55760003560e01c806370ee7d0611610097578063d7b7dbae11610066578063d7b7dbae146102c0578063dd906ddd146102dc578063f6a3d24e146102fc578063f95121861461032c576100f5565b806370ee7d061461021057806376c5d11714610240578063c18f73b214610270578063c3d42386146102a2576100f5565b80634ba4dd4f116100d35780634ba4dd4f146101765780634bae89cb146101925780636d13997c146101c257806370a08231146101e0576100f5565b80632db7e42e146100fa5780633d44e74c1461012a5780633dc2f50e1461015a575b600080fd5b610114600480360381019061010f9190611641565b61035c565b604051610121919061176d565b60405180910390f35b610144600480360381019061013f91906117ed565b6104c6565b6040516101519190611835565b60405180910390f35b610174600480360381019061016f91906119e5565b6104e6565b005b610190600480360381019061018b9190611b1b565b6105cc565b005b6101ac60048036038101906101a79190611641565b6106ef565b6040516101b99190611b86565b60405180910390f35b6101ca610713565b6040516101d79190611c50565b60405180910390f35b6101fa60048036038101906101f591906117ed565b61076b565b6040516102079190611d8b565b60405180910390f35b61022a60048036038101906102259190611641565b610976565b6040516102379190611b86565b60405180910390f35b61025a60048036038101906102559190611641565b61099a565b6040516102679190611df7565b60405180910390f35b61028a60048036038101906102859190611e19565b610a46565b60405161029993929190611e59565b60405180910390f35b6102aa610b9d565b6040516102b79190611b86565b60405180910390f35b6102da60048036038101906102d59190611e9e565b610baa565b005b6102e4610cf5565b6040516102f393929190611fcf565b60405180910390f35b610316600480360381019061031191906117ed565b61103d565b6040516103239190611835565b60405180910390f35b61034660048036038101906103419190611641565b611098565b6040516103539190611df7565b60405180910390f35b6103646113d9565b600282815481106103785761037761201b565b5b90600052602060002090600302016040518060600160405290816000820180546103a190612079565b80601f01602080910402602001604051908101604052809291908181526020018280546103cd90612079565b801561041a5780601f106103ef5761010080835404028352916020019161041a565b820191906000526020600020905b8154815290600101906020018083116103fd57829003601f168201915b505050505081526020016001820154815260200160028201805461043d90612079565b80601f016020809104026020016040519081016040528092919081815260200182805461046990612079565b80156104b65780601f1061048b576101008083540402835291602001916104b6565b820191906000526020600020905b81548152906001019060200180831161049957829003601f168201915b5050505050815250509050919050565b60016020528060005260406000206000915054906101000a900460ff1681565b6000604051806060016040528086868080601f016020809104026020016040519081016040528093929190818152602001838380828437600081840152601f19601f820116905080830192505050505050508152602001848152602001838152509050600281908060018154018082558091505060019003906000526020600020906003020160009091909190915060008201518160000190805190602001906105919291906113fa565b506020820151816001015560408201518160020190805190602001906105b89291906113fa565b5050506105c533826105cc565b5050505050565b6000803373ffffffffffffffffffffffffffffffffffffffff1673ffffffffffffffffffffffffffffffffffffffff16815260200190815260200160002081908060018154018082558091505060019003906000526020600020906003020160009091909190915060008201518160000190805190602001906106509291906113fa565b506020820151816001015560408201518160020190805190602001906106779291906113fa565b50505060016004600082825461068d91906120da565b9250508190555060018060008473ffffffffffffffffffffffffffffffffffffffff1673ffffffffffffffffffffffffffffffffffffffff16815260200190815260200160002060006101000a81548160ff0219169083151502179055505050565b600381815481106106ff57600080fd5b906000526020600020016000915090505481565b6060600580548060200260200160405190810160405280929190818152602001828054801561076157602002820191906000526020600020905b81548152602001906001019080831161074d575b5050505050905090565b6060600073ffffffffffffffffffffffffffffffffffffffff168273ffffffffffffffffffffffffffffffffffffffff1614156107a757600080fd5b60008060008473ffffffffffffffffffffffffffffffffffffffff1673ffffffffffffffffffffffffffffffffffffffff168152602001908152602001600020805480602002602001604051908101604052809291908181526020016000905b82821015610967578382906000526020600020906003020160405180606001604052908160008201805461083a90612079565b80601f016020809104026020016040519081016040528092919081815260200182805461086690612079565b80156108b35780601f10610888576101008083540402835291602001916108b3565b820191906000526020600020905b81548152906001019060200180831161089657829003601f168201915b50505050508152602001600182015481526020016002820180546108d690612079565b80601f016020809104026020016040519081016040528092919081815260200182805461090290612079565b801561094f5780601f106109245761010080835404028352916020019161094f565b820191906000526020600020905b81548152906001019060200180831161093257829003601f168201915b50505050508152505081526020019060010190610807565b50505050905080915050919050565b6005818154811061098657600080fd5b906000526020600020016000915090505481565b600681815481106109aa57600080fd5b9060005260206000200160009150905080546109c590612079565b80601f01602080910402602001604051908101604052809291908181526020018280546109f190612079565b8015610a3e5780601f10610a1357610100808354040283529160200191610a3e565b820191906000526020600020905b815481529060010190602001808311610a2157829003601f168201915b505050505081565b60006020528160005260406000208181548110610a6257600080fd5b906000526020600020906003020160009150915050806000018054610a8690612079565b80601f0160208091040260200160405190810160405280929190818152602001828054610ab290612079565b8015610aff5780601f10610ad457610100808354040283529160200191610aff565b820191906000526020600020905b815481529060010190602001808311610ae257829003601f168201915b505050505090806001015490806002018054610b1a90612079565b80601f0160208091040260200160405190810160405280929190818152602001828054610b4690612079565b8015610b935780601f10610b6857610100808354040283529160200191610b93565b820191906000526020600020905b815481529060010190602001808311610b7657829003601f168201915b5050505050905083565b6000600280549050905090565b600073ffffffffffffffffffffffffffffffffffffffff168373ffffffffffffffffffffffffffffffffffffffff161415610be457600080fd5b600073ffffffffffffffffffffffffffffffffffffffff168273ffffffffffffffffffffffffffffffffffffffff161415610c1e57600080fd5b60011515610c2b8461103d565b151514610c3757600080fd5b610c42836000611144565b6000808373ffffffffffffffffffffffffffffffffffffffff1673ffffffffffffffffffffffffffffffffffffffff1681526020019081526020016000208190806001815401808255809150506001900390600052602060002090600302016000909190919091506000820151816000019080519060200190610cc69291906113fa565b50602082015181600101556040820151816002019080519060200190610ced9291906113fa565b505050505050565b606080606060005b600280549050811015610e3357600560028281548110610d2057610d1f61201b565b5b9060005260206000209060030201600101549080600181540180825580915050600190039060005260206000200160009091909190915055600660028281548110610d6e57610d6d61201b565b5b906000526020600020906003020160020190806001815401808255809150506001900390600052602060002001600090919091909150908054610db090612079565b610dbb929190611480565b50600760028281548110610dd257610dd161201b565b5b906000526020600020906003020160000190806001815401808255809150506001900390600052602060002001600090919091909150908054610e1490612079565b610e1f929190611480565b508080610e2b90612130565b915050610cfd565b5060056006600782805480602002602001604051908101604052809291908181526020018280548015610e8557602002820191906000526020600020905b815481526020019060010190808311610e71575b5050505050925081805480602002602001604051908101604052809291908181526020016000905b82821015610f59578382906000526020600020018054610ecc90612079565b80601f0160208091040260200160405190810160405280929190818152602001828054610ef890612079565b8015610f455780601f10610f1a57610100808354040283529160200191610f45565b820191906000526020600020905b815481529060010190602001808311610f2857829003601f168201915b505050505081526020019060010190610ead565b50505050915080805480602002602001604051908101604052809291908181526020016000905b8282101561102c578382906000526020600020018054610f9f90612079565b80601f0160208091040260200160405190810160405280929190818152602001828054610fcb90612079565b80156110185780601f10610fed57610100808354040283529160200191611018565b820191906000526020600020905b815481529060010190602001808311610ffb57829003601f168201915b505050505081526020019060010190610f80565b505050509050925092509250909192565b600080600160008473ffffffffffffffffffffffffffffffffffffffff1673ffffffffffffffffffffffffffffffffffffffff16815260200190815260200160002060009054906101000a900460ff16905080915050919050565b600781815481106110a857600080fd5b9060005260206000200160009150905080546110c390612079565b80601f01602080910402602001604051908101604052809291908181526020018280546110ef90612079565b801561113c5780601f106111115761010080835404028352916020019161113c565b820191906000526020600020905b81548152906001019060200180831161111f57829003601f168201915b505050505081565b60008060008473ffffffffffffffffffffffffffffffffffffffff1673ffffffffffffffffffffffffffffffffffffffff168152602001908152602001600020905060008290505b6001828054905061119d9190612179565b81101561125257816001826111b291906120da565b815481106111c3576111c261201b565b5b90600052602060002090600302018282815481106111e4576111e361201b565b5b9060005260206000209060030201600082018160000190805461120690612079565b61121192919061150d565b5060018201548160010155600282018160020190805461123090612079565b61123b92919061150d565b50905050808061124a90612130565b91505061118c565b5080805480611264576112636121ad565b5b600190038181906000526020600020906003020160008082016000611289919061159a565b60018201600090556002820160006112a1919061159a565b505090556112ae826112b3565b505050565b60008190505b60016002805490506112cb9190612179565b8110156113825760026001826112e191906120da565b815481106112f2576112f161201b565b5b9060005260206000209060030201600282815481106113145761131361201b565b5b9060005260206000209060030201600082018160000190805461133690612079565b61134192919061150d565b5060018201548160010155600282018160020190805461136090612079565b61136b92919061150d565b50905050808061137a90612130565b9150506112b9565b506002805480611395576113946121ad565b5b6001900381819060005260206000209060030201600080820160006113ba919061159a565b60018201600090556002820160006113d2919061159a565b5050905550565b60405180606001604052806060815260200160008152602001606081525090565b82805461140690612079565b90600052602060002090601f016020900481019282611428576000855561146f565b82601f1061144157805160ff191683800117855561146f565b8280016001018555821561146f579182015b8281111561146e578251825591602001919060010190611453565b5b50905061147c91906115da565b5090565b82805461148c90612079565b90600052602060002090601f0160209004810192826114ae57600085556114fc565b82601f106114bf57805485556114fc565b828001600101855582156114fc57600052602060002091601f016020900482015b828111156114fb5782548255916001019190600101906114e0565b5b50905061150991906115da565b5090565b82805461151990612079565b90600052602060002090601f01602090048101928261153b5760008555611589565b82601f1061154c5780548555611589565b8280016001018555821561158957600052602060002091601f016020900482015b8281111561158857825482559160010191906001019061156d565b5b50905061159691906115da565b5090565b5080546115a690612079565b6000825580601f106115b857506115d7565b601f0160209004906000526020600020908101906115d691906115da565b5b50565b5b808211156115f35760008160009055506001016115db565b5090565b6000604051905090565b600080fd5b600080fd5b6000819050919050565b61161e8161160b565b811461162957600080fd5b50565b60008135905061163b81611615565b92915050565b60006020828403121561165757611656611601565b5b60006116658482850161162c565b91505092915050565b600081519050919050565b600082825260208201905092915050565b60005b838110156116a857808201518184015260208101905061168d565b838111156116b7576000848401525b50505050565b6000601f19601f8301169050919050565b60006116d98261166e565b6116e38185611679565b93506116f381856020860161168a565b6116fc816116bd565b840191505092915050565b6117108161160b565b82525050565b6000606083016000830151848203600086015261173382826116ce565b91505060208301516117486020860182611707565b506040830151848203604086015261176082826116ce565b9150508091505092915050565b600060208201905081810360008301526117878184611716565b905092915050565b600073ffffffffffffffffffffffffffffffffffffffff82169050919050565b60006117ba8261178f565b9050919050565b6117ca816117af565b81146117d557600080fd5b50565b6000813590506117e7816117c1565b92915050565b60006020828403121561180357611802611601565b5b6000611811848285016117d8565b91505092915050565b60008115159050919050565b61182f8161181a565b82525050565b600060208201905061184a6000830184611826565b92915050565b600080fd5b600080fd5b600080fd5b60008083601f84011261187557611874611850565b5b8235905067ffffffffffffffff81111561189257611891611855565b5b6020830191508360018202830111156118ae576118ad61185a565b5b9250929050565b600080fd5b7f4e487b7100000000000000000000000000000000000000000000000000000000600052604160045260246000fd5b6118f2826116bd565b810181811067ffffffffffffffff82111715611911576119106118ba565b5b80604052505050565b60006119246115f7565b905061193082826118e9565b919050565b600067ffffffffffffffff8211156119505761194f6118ba565b5b611959826116bd565b9050602081019050919050565b82818337600083830152505050565b600061198861198384611935565b61191a565b9050828152602081018484840111156119a4576119a36118b5565b5b6119af848285611966565b509392505050565b600082601f8301126119cc576119cb611850565b5b81356119dc848260208601611975565b91505092915050565b600080600080606085870312156119ff576119fe611601565b5b600085013567ffffffffffffffff811115611a1d57611a1c611606565b5b611a298782880161185f565b94509450506020611a3c8782880161162c565b925050604085013567ffffffffffffffff811115611a5d57611a5c611606565b5b611a69878288016119b7565b91505092959194509250565b600080fd5b600080fd5b600060608284031215611a9557611a94611a75565b5b611a9f606061191a565b9050600082013567ffffffffffffffff811115611abf57611abe611a7a565b5b611acb848285016119b7565b6000830152506020611adf8482850161162c565b602083015250604082013567ffffffffffffffff811115611b0357611b02611a7a565b5b611b0f848285016119b7565b60408301525092915050565b60008060408385031215611b3257611b31611601565b5b6000611b40858286016117d8565b925050602083013567ffffffffffffffff811115611b6157611b60611606565b5b611b6d85828601611a7f565b9150509250929050565b611b808161160b565b82525050565b6000602082019050611b9b6000830184611b77565b92915050565b600081519050919050565b600082825260208201905092915050565b6000819050602082019050919050565b6000611bd98383611707565b60208301905092915050565b6000602082019050919050565b6000611bfd82611ba1565b611c078185611bac565b9350611c1283611bbd565b8060005b83811015611c43578151611c2a8882611bcd565b9750611c3583611be5565b925050600181019050611c16565b5085935050505092915050565b60006020820190508181036000830152611c6a8184611bf2565b905092915050565b600081519050919050565b600082825260208201905092915050565b6000819050602082019050919050565b60006060830160008301518482036000860152611cbb82826116ce565b9150506020830151611cd06020860182611707565b5060408301518482036040860152611ce882826116ce565b9150508091505092915050565b6000611d018383611c9e565b905092915050565b6000602082019050919050565b6000611d2182611c72565b611d2b8185611c7d565b935083602082028501611d3d85611c8e565b8060005b85811015611d795784840389528151611d5a8582611cf5565b9450611d6583611d09565b925060208a01995050600181019050611d41565b50829750879550505050505092915050565b60006020820190508181036000830152611da58184611d16565b905092915050565b600082825260208201905092915050565b6000611dc98261166e565b611dd38185611dad565b9350611de381856020860161168a565b611dec816116bd565b840191505092915050565b60006020820190508181036000830152611e118184611dbe565b905092915050565b60008060408385031215611e3057611e2f611601565b5b6000611e3e858286016117d8565b9250506020611e4f8582860161162c565b9150509250929050565b60006060820190508181036000830152611e738186611dbe565b9050611e826020830185611b77565b8181036040830152611e948184611dbe565b9050949350505050565b600080600060608486031215611eb757611eb6611601565b5b6000611ec5868287016117d8565b9350506020611ed6868287016117d8565b925050604084013567ffffffffffffffff811115611ef757611ef6611606565b5b611f0386828701611a7f565b9150509250925092565b600081519050919050565b600082825260208201905092915050565b6000819050602082019050919050565b6000611f4583836116ce565b905092915050565b6000602082019050919050565b6000611f6582611f0d565b611f6f8185611f18565b935083602082028501611f8185611f29565b8060005b85811015611fbd5784840389528151611f9e8582611f39565b9450611fa983611f4d565b925060208a01995050600181019050611f85565b50829750879550505050505092915050565b60006060820190508181036000830152611fe98186611bf2565b90508181036020830152611ffd8185611f5a565b905081810360408301526120118184611f5a565b9050949350505050565b7f4e487b7100000000000000000000000000000000000000000000000000000000600052603260045260246000fd5b7f4e487b7100000000000000000000000000000000000000000000000000000000600052602260045260246000fd5b6000600282049050600182168061209157607f821691505b602082108114156120a5576120a461204a565b5b50919050565b7f4e487b7100000000000000000000000000000000000000000000000000000000600052601160045260246000fd5b60006120e58261160b565b91506120f08361160b565b9250827fffffffffffffffffffffffffffffffffffffffffffffffffffffffffffffffff03821115612125576121246120ab565b5b828201905092915050565b600061213b8261160b565b91507fffffffffffffffffffffffffffffffffffffffffffffffffffffffffffffffff82141561216e5761216d6120ab565b5b600182019050919050565b60006121848261160b565b915061218f8361160b565b9250828210156121a2576121a16120ab565b5b828203905092915050565b7f4e487b7100000000000000000000000000000000000000000000000000000000600052603160045260246000fdfea264697066735822122069dd8015958a91824d97c1e97c2f9d680e22e1b92b31075ebe818311aea8861764736f6c634300080b0033",
  "immutableReferences": {},
  "source": "//SPDX-License-Identifier: MIT\npragma solidity 0.8.11;\n\ncontract Users{\n    struct NewUser{\n        string name;\n        uint256 age;\n        string color;\n    }\n    mapping(address => NewUser[]) public usersmap;\n    mapping(address => bool) public there;\n    NewUser[] newUser;\n    //mapping(address => NewUser) public usersmap;\n    function setMember(string calldata name, uint256 age, string memory color) public {\n        NewUser memory newUse = NewUser({name: name,age:age, color:color});\n        newUser.push(newUse);\n        mint(msg.sender, newUse);\n    }\n    function mint(address _to, NewUser memory u) public{\n        usersmap[msg.sender].push(u);\n        counter+=1;\n        there[_to] = true;\n    }\n    function transferFrom(address _from, address _to, NewUser memory u) public {\n        require(_from != address(0));\n        require(_to != address(0));\n        require(exists(_from) ==true);\n        deleteFromUser(_from, 0);\n        usersmap[_to].push(u);\n    }\n    function deleteFromUser(address _from, uint256 _index) private {\n        NewUser[] storage owninguser = usersmap[_from];\n        for(uint i = _index; i< owninguser.length-1; i++){\n            owninguser[i] = owninguser[i+1]; \n        }\n        owninguser.pop();\n        deleteFromArr(_index);\n    }\n    function exists(address _owner) public view returns(bool){\n        bool isthere = there[_owner];\n        return isthere;\n    }\n    uint256[] public array1;\n    uint256 private counter;\n    constructor(){\n        counter = 0;\n    }\n    function deleteFromArr(uint256 index) private{\n        for(uint i = index; i< newUser.length-1; i++){\n            newUser[i] = newUser[i+1]; \n        }\n        newUser.pop();\n    }\n    uint256[] public _age;\n    string[] public _color;\n    string[] public _name;\n    function getmembers() public returns(uint256[] memory,string[] memory, string[] memory){\n        for(uint256 i = 0; i < newUser.length; i++){\n            _age.push(newUser[i].age);\n            _color.push(newUser[i].color);\n            _name.push(newUser[i].name);\n        }\n        return(_age, _color, _name);\n    }\n    function newUserLength() public view returns(uint256){\n        return newUser.length;\n    }\n    function arraylength() public view returns(uint256[] memory){\n        return _age;\n    }\n    function getmembersByIndex(uint index) public view returns(NewUser memory){\n        return newUser[index];\n    }\n    function balanceOf(address _owner) public view returns(NewUser[] memory){\n        require(_owner != address(0));\n        NewUser[] memory newuser = usersmap[_owner];\n        return newuser;\n    }\n    \n}",
  "sourcePath": "/home/ollie/Documents/vscodeprojects/decentralized_marketplace/src/contracts/sample.sol",
  "compiler": {
    "name": "solc",
    "version": "0.8.11+commit.d7f03943.Emscripten.clang"
  },
  "schemaVersion": "3.4.4",
  "updatedAt": "2022-02-11T07:55:54.255Z",
  "devdoc": {
    "kind": "dev",
    "methods": {},
    "version": 1
  },
  "userdoc": {
    "kind": "user",
    "methods": {},
    "version": 1
  }
}